:100F13000429000000000B1E44757374204C657691
:100F2300656C3A12084C4F570000004D4544495533
:070F33004D4849474800004A
:100CF700E4F533F534F535F536120F83758911753B
:100D07008D5D758BB1E4F58CF58AD28EE4F531F5FE
:100D170032308F03020D9E30925AE53445337054BA
:100D2700C28CAF8CF52D8F2EAF8AF52F8F30F58CB7
:100D3700F58AAB2CAA2BA92AA829C000C001C0029A
:100D4700C003AB36AA35AD30AC2FAF2EAE2D120D8A
:100D5700E5AC06AD07E4120B1CD003D002D001D0DE
:100D6700001208078F2C8E2B8D2A8C29753300755E
:100D77003401809D20929AE534640145337092D204
:100D87008CF533F534209289308DFA0536E53670C7
:100D9700020535C28D80EEC28F0532E5327002053D
:100DA70031C3948DE531648094805003020D18C2DD
:100DB7008EE4FBFA79C87842AF2CAE2BAD2AAC296A
:100DC700120A018F1D8E1C8D1B8C1A120BE4E4F581
:0E0DD7002CF52BF52AF529F535F536020D1110
:060F3B00D2907F0A7E0047
:100F4100E4FDFCC3ED9FEE6480F8EC6480985007EB
:070F51000DBD00010C80EC56
:010F58002276
:070F59007F01120F607F838E
:0E0F60008FA0C291120F3BC2907F64020F411E
:100F83007F38120F607F0C120F607F01120F607F9A
:040F930080020F6069
:070F6E00741E2538F8E6FFB0
:0E0F75008FA0D291120F3BC2907F64020F41F9
:080DE5008E378F388A398B3AF2
:100DED00753B00E538540FF53CE537C4F854F0C8B1
:100DFD0068F537E538C4540F48F538ED540FFB7AD4
:100E0D0000ECC4F854F0C868FCEDC4540F48FDE57F
:100E1D003C758200F583E538C454F0FEE58224006C
:100E2D00F582EE3583F583EDC4F8540FC868FFECF9
:100E3D00C454F048FEE5822FFFE5833ECF2BFDEA3B
:100E4D003FFCE4120B1C7B8F7A36798E783A1208B0
:100E5D00F8C004C005C006C007AC39AD3AE4120BAA
:100E6D001C7B337A33798E78421208F8D003D00286
:0A0E7D00D001D000120807020B5547
:100BE4007FC77E4B7DA17C40AB1DAA1CA91BA81A04
:100BF400120A9E5046120F59E4F537F538120F6E5B
:100C04000538E53870020537C3940BE537648094E2
:100C14008040EA7FC7120F60E4F539F53A7408257D
:100C24003AF8E6FF120F75053AE53A70020539C342
:100C34009406E5396480948040E3227FC77E4B7D2F
:100C4400A17C40AB1DAA1CA91BA81A120A9E605DB8
:100C5400405B7FD57E787D137C41AB1DAA1CA91B0C
:100C6400A81A120A9E5046120F59E4F537F53812A5
:100C74000F6E0538E53870020537C3940BE5376409
:100C840080948040EA7FC5120F60E4F539F53A7428
:100C94000E253AF8E6FF120F75053AE53A7002059B
:100CA40039C39406E5396480948040E322120F59D5
:100CB400E4F537F538120F6E0538E538700205375C
:100CC400C3940BE5376480948040EA7FC6120F60BA
:100CD400E4F539F53A7414253AF8E6FF120F750570
:100CE4003AE53A70020539C39406E5396480948084
:020CF40040E3DB
:010CF60022DB
:10080000020BC1E86480F8E933E83360110460F05A
:10081000ED33EC337009E8FCE9FDEAFEEBFF22045E
:1008200060DED3EB9FEA9EE99DE8C2E78CF0C2F759
:1008300095F0400CE8CCF8E9CDF9EACEFAEBCFFB25
:10084000120B8C85D0F05804700320D5B3E80470E7
:10085000075002B2D5020BCB92D5EC0460F7E4CC82
:10086000C0E0C398F8603B94186008400DD0E0FBEE
:10087000020BA3E4FBFAC9FC8028E830E406E4C9D3
:10088000FBE4CAFCE830E305E4C9CACBFCE8540742
:100890006010F8C3E913F9EA13FAEB13FBEC13FC4D
:1008A000D8F130F52FC3E49CFCEF9BFFEE9AFEEDF0
:1008B00099FDD0E0FBEF4E4D4C701222DB03020B92
:1008C000C8EC2CFCEF33FFEE33FEED33FDED30E7EB
:1008D000EB020BA3EF2BFFEE3AFEED39FDD0E0FB70
:1008E00050130BBB0003020BCBED13FDEE13FEEF19
:0808F00013FFEC13FC020BA343
:1008F800EC4D6011E8497017ED33EC3304600DE4FA
:10090800FCFFFEFD22E933E8330470F8020BC11244
:100918000B8C58046009E4CC248150062850090245
:100928000BCB284003020BC8C0E0EB4A7044B980E7
:1009380006D0E0FB020BB7EF4E701CBD8008EBFF42
:10094800EAFEE9FD80EBE98DF0A4FEE5F00209E19D
:10095800E9CDF9EAFEEBFFEF89F0A4FCE5F0CE89DA
:10096800F0A42EFFE435F0CD89F0A42DFEE435F097
:100978008067EF4E7005BD80D780C3EF8BF0A4ACC5
:10098800F0EE8BF0A42CFCE435F0F8EF8AF0A42C00
:10099800E5F038FCE433CB8DF0A42CFCE5F03BF813
:1009A800EE8AF0A42CFCE5F038F8E433CF89F0A403
:1009B8002CFCE5F038CF3400CE89F0A42FFFE5F009
:1009C8003EFEE433C98DF0A42EFEE5F039CD8AF061
:1009D800A42FFFE5F03EFEE43DFD33D0E0FB5007D9
:1009E8000BBB000F020BCBEC2CFCEF33FFEE33FEFE
:0609F800ED33FD020BA32C
:1009FE00020BCBEC5D046005E859047003020BC1D9
:100A0E00120B8C580460F6EC4860F2EC7004FDFE9C
:100A1E00FF22C860DB2481C85009C39860025006CB
:100A2E00020BC89850CAF582E9294B4A7005AB8271
:100A3E00020BB775F0007C1A7880C3EF9BEE9AED2F
:100A4E0099400DC3EF9BFFEE9AFEED99FDE842F043
:100A5E00DC23ACF0D0E0FFD0E0FED0E0FDAB822096
:100A6E00E7101BEB60BAEC2CFCEF33FFEE33FEED20
:100A7E0033FD020BA3E803F830E705C0F075F00074
:100A8E00EF2FFFEE33FEED33FD40B830E7C280AA04
:100A9E0074F8CC6480CCC86480C8F58204604FC3FF
:100AAE00EB9FF5F0EA9E42F0E99D42F0E89C45F09E
:100ABE00603C501DE5825FFFE582D313CB5BCBF428
:100ACE002B5582FB50280ABA002409B90020088051
:100ADE001DE5825BFBE582D313CF5FCFF4C3132FEB
:100AEE005582FF50090EBE00050DBD00010CC3EB73
:100AFE009FF5F0EA9E42F0E99D42F0E89C45F060D9
:090B0E0007CC4820E701B3EC22FA
:100B170075F020800E75F010800575F0087D007E59
:100B2700007F003392D530D503120BD6EC3340103B
:100B3700EF33FFEE33FEED33FDEC33FCD5F0ED2262
:0E0B4700E5F0247EA2D513CC92E7CDCEFF229E
:100B5500EDD2E7CD33EC3392D524814006E4FFFE98
:100B6500FDFC22FCE4CFCECDCC24E0501174FF80F7
:100B7500EDC3CC13CCCD13CDCE13CECF13CF047094
:070B8500F030D5DE020BD6B3
:100B8C00E9D2E7C933E833F892D5EDD2E7CD33ECAF
:070B9C0033FC5002B2D52228
:100BA300EC30E7100FBF000C0EBE00080DBD0004B3
:100BB3000BEB6014A2D5EB13FCED92E7FD2274FF5F
:100BC300FCFDFEFF22E480F8A2D574FF13FC7D80B8
:030BD300E480EFCC
:03000000020E8766
:0C0E8700787FE4F6D8FD75813C020ECEA9
:0E0BD600C3E49FFFE49EFEE49DFDE49CFC2230
:100E9300020CF7E493A3F8E493A34003F68001F272
:100EA30008DFF48029E493A3F85407240CC8C33360
:100EB300C4540F4420C8834004F456800146F6DF2F
:100EC300E4800B0102040810204080900F13E47E9D
:100ED300019360BCA3FF543F30E509541FFEE49324
:100EE300A360010ECF54C025E060A840B8E493A3EB
:100EF300FAE493A3F8E493A3C8C582C8CAC583CA16
:100F0300F0A3C8C582C8CAC583CADFE9DEE780BECD
:010F3A0000B6
:00000001FF
